{
  "contractName": "Beacon",
  "abi": [
    {
      "constant": true,
      "inputs": [],
      "name": "getLatestRandomness",
      "outputs": [
        {
          "internalType": "uint256",
          "name": "",
          "type": "uint256"
        },
        {
          "internalType": "bytes32",
          "name": "",
          "type": "bytes32"
        }
      ],
      "payable": false,
      "stateMutability": "view",
      "type": "function"
    }
  ],
  "bytecode": "0x6080604052348015600f57600080fd5b50608c8061001e6000396000f3fe6080604052348015600f57600080fd5b506004361060285760003560e01c8063f4bebd7a14602d575b600080fd5b60336050565b604051808381526020018281526020019250505060405180910390f35b600080909156fea265627a7a7231582092d92b7e4cf2d6f66babdc47047bb610d2b6b87c7b73877acfdab2566f2baf8264736f6c63430005100032",
  "source": "pragma solidity ^0.5.2;\n\nimport \"./BeaconContract.sol\";\n\ncontract Beacon{\n    function getLatestRandomness()external view returns(uint256,bytes32){}\n    \n}\n\ncontract BloodBankDonorFeedOracle {\n    \n  address public oracleAddress;\n  \n  address public BeaconContractAddress=0x79474439753C7c70011C3b00e06e559378bAD040;\n\n  constructor (address _oracleAddress) public {\n    oracleAddress = _oracleAddress;\n  }\n  \n  function setBeaconContractAddress(address _address) public  {\n        BeaconContractAddress=_address;\n    }\n    \n    function generateRandomNumber() public view returns(bytes32){\n        uint blockNumber;\n        bytes32 randomNumber;\n        Beacon beacon=Beacon(BeaconContractAddress);\n        (blockNumber,randomNumber)=beacon.getLatestRandomness();\n        return randomNumber;\n       \n    }\n\n  event DonorProfileFeed (\n    string DonoationDescription,\n    string bodyWeight,\n    string plateletCount,\n    string numberOfDonations,\n    string lastDonationDate,\n    string lastDonationPlace\n  );\n\n  function updateDonorProfile (\n    string memory DonoationDescription,\n    string memory bodyWeight,\n    string memory plateletCount,\n    string memory numberOfDonations,\n    string memory lastDonationDate,\n    string memory lastDonationPlace\n  )\n  public\n  {\n    require(msg.sender == oracleAddress);\n\n   if ((bytes32(block.number))> generateRandomNumber()) {\n\n    emit DonorProfileFeed (\n      DonoationDescription,\n      bodyWeight,\n      plateletCount,\n      numberOfDonations,\n      lastDonationDate,\n      lastDonationPlace\n    );\n   }\n  }\n}\n",
  "sourcePath": "/Users/gokulalex/Apps/2020_india_hacks/Harmony-DecentralHacks2020/sanguinet-smartcontracts/contracts/BloodBankDonorFeedOracle.sol",
  "compiler": {
    "name": "solc",
    "version": "0.5.16+commit.9c3226ce.Emscripten.clang"
  },
  "schemaVersion": "3.2.3",
  "updatedAt": "2020-08-27T13:51:34.541Z",
  "devdoc": {
    "methods": {}
  },
  "userdoc": {
    "methods": {}
  }
}