{
  "contractName": "BloodBankDonorFeedOracle",
  "abi": [
    {
      "inputs": [
        {
          "internalType": "address",
          "name": "_oracleAddress",
          "type": "address"
        }
      ],
      "payable": false,
      "stateMutability": "nonpayable",
      "type": "constructor"
    },
    {
      "anonymous": false,
      "inputs": [
        {
          "indexed": false,
          "internalType": "string",
          "name": "DonoationDescription",
          "type": "string"
        },
        {
          "indexed": false,
          "internalType": "string",
          "name": "bodyWeight",
          "type": "string"
        },
        {
          "indexed": false,
          "internalType": "string",
          "name": "plateletCount",
          "type": "string"
        },
        {
          "indexed": false,
          "internalType": "string",
          "name": "numberOfDonations",
          "type": "string"
        },
        {
          "indexed": false,
          "internalType": "string",
          "name": "lastDonationDate",
          "type": "string"
        },
        {
          "indexed": false,
          "internalType": "string",
          "name": "lastDonationPlace",
          "type": "string"
        }
      ],
      "name": "DonorProfileFeed",
      "type": "event"
    },
    {
      "constant": true,
      "inputs": [],
      "name": "BeaconContractAddress",
      "outputs": [
        {
          "internalType": "address",
          "name": "",
          "type": "address"
        }
      ],
      "payable": false,
      "stateMutability": "view",
      "type": "function"
    },
    {
      "constant": true,
      "inputs": [],
      "name": "oracleAddress",
      "outputs": [
        {
          "internalType": "address",
          "name": "",
          "type": "address"
        }
      ],
      "payable": false,
      "stateMutability": "view",
      "type": "function"
    },
    {
      "constant": false,
      "inputs": [
        {
          "internalType": "address",
          "name": "_address",
          "type": "address"
        }
      ],
      "name": "setBeaconContractAddress",
      "outputs": [],
      "payable": false,
      "stateMutability": "nonpayable",
      "type": "function"
    },
    {
      "constant": true,
      "inputs": [],
      "name": "generateRandomNumber",
      "outputs": [
        {
          "internalType": "bytes32",
          "name": "",
          "type": "bytes32"
        }
      ],
      "payable": false,
      "stateMutability": "view",
      "type": "function"
    },
    {
      "constant": false,
      "inputs": [
        {
          "internalType": "string",
          "name": "DonoationDescription",
          "type": "string"
        },
        {
          "internalType": "string",
          "name": "bodyWeight",
          "type": "string"
        },
        {
          "internalType": "string",
          "name": "plateletCount",
          "type": "string"
        },
        {
          "internalType": "string",
          "name": "numberOfDonations",
          "type": "string"
        },
        {
          "internalType": "string",
          "name": "lastDonationDate",
          "type": "string"
        },
        {
          "internalType": "string",
          "name": "lastDonationPlace",
          "type": "string"
        }
      ],
      "name": "updateDonorProfile",
      "outputs": [],
      "payable": false,
      "stateMutability": "nonpayable",
      "type": "function"
    }
  ],
  "bytecode": "0x60806040527379474439753c7c70011c3b00e06e559378bad040600160006101000a81548173ffffffffffffffffffffffffffffffffffffffff021916908373ffffffffffffffffffffffffffffffffffffffff16021790555034801561006557600080fd5b50604051610aa4380380610aa48339818101604052602081101561008857600080fd5b8101908080519060200190929190505050806000806101000a81548173ffffffffffffffffffffffffffffffffffffffff021916908373ffffffffffffffffffffffffffffffffffffffff160217905550506109bb806100e96000396000f3fe608060405234801561001057600080fd5b50600436106100575760003560e01c80630c4c4efb1461005c5780632035ecf41461040a578063773a11541461045457806386f69ee614610472578063a89ae4ba146104b6575b600080fd5b610408600480360360c081101561007257600080fd5b810190808035906020019064010000000081111561008f57600080fd5b8201836020820111156100a157600080fd5b803590602001918460018302840111640100000000831117156100c357600080fd5b91908080601f016020809104026020016040519081016040528093929190818152602001838380828437600081840152601f19601f8201169050808301925050505050505091929192908035906020019064010000000081111561012657600080fd5b82018360208201111561013857600080fd5b8035906020019184600183028401116401000000008311171561015a57600080fd5b91908080601f016020809104026020016040519081016040528093929190818152602001838380828437600081840152601f19601f820116905080830192505050505050509192919290803590602001906401000000008111156101bd57600080fd5b8201836020820111156101cf57600080fd5b803590602001918460018302840111640100000000831117156101f157600080fd5b91908080601f016020809104026020016040519081016040528093929190818152602001838380828437600081840152601f19601f8201169050808301925050505050505091929192908035906020019064010000000081111561025457600080fd5b82018360208201111561026657600080fd5b8035906020019184600183028401116401000000008311171561028857600080fd5b91908080601f016020809104026020016040519081016040528093929190818152602001838380828437600081840152601f19601f820116905080830192505050505050509192919290803590602001906401000000008111156102eb57600080fd5b8201836020820111156102fd57600080fd5b8035906020019184600183028401116401000000008311171561031f57600080fd5b91908080601f016020809104026020016040519081016040528093929190818152602001838380828437600081840152601f19601f8201169050808301925050505050505091929192908035906020019064010000000081111561038257600080fd5b82018360208201111561039457600080fd5b803590602001918460018302840111640100000000831117156103b657600080fd5b91908080601f016020809104026020016040519081016040528093929190818152602001838380828437600081840152601f19601f820116905080830192505050505050509192919290505050610500565b005b610412610831565b604051808273ffffffffffffffffffffffffffffffffffffffff1673ffffffffffffffffffffffffffffffffffffffff16815260200191505060405180910390f35b61045c610857565b6040518082815260200191505060405180910390f35b6104b46004803603602081101561048857600080fd5b81019080803573ffffffffffffffffffffffffffffffffffffffff16906020019092919050505061091d565b005b6104be610961565b604051808273ffffffffffffffffffffffffffffffffffffffff1673ffffffffffffffffffffffffffffffffffffffff16815260200191505060405180910390f35b6000809054906101000a900473ffffffffffffffffffffffffffffffffffffffff1673ffffffffffffffffffffffffffffffffffffffff163373ffffffffffffffffffffffffffffffffffffffff161461055957600080fd5b610561610857565b4360001b1115610829577fd05cc273cf81b63a3a374ab00550467d5eb5bc5cbb63c2fe79ec3aab374cd1e98686868686866040518080602001806020018060200180602001806020018060200187810387528d818151815260200191508051906020019080838360005b838110156105e65780820151818401526020810190506105cb565b50505050905090810190601f1680156106135780820380516001836020036101000a031916815260200191505b5087810386528c818151815260200191508051906020019080838360005b8381101561064c578082015181840152602081019050610631565b50505050905090810190601f1680156106795780820380516001836020036101000a031916815260200191505b5087810385528b818151815260200191508051906020019080838360005b838110156106b2578082015181840152602081019050610697565b50505050905090810190601f1680156106df5780820380516001836020036101000a031916815260200191505b5087810384528a818151815260200191508051906020019080838360005b838110156107185780820151818401526020810190506106fd565b50505050905090810190601f1680156107455780820380516001836020036101000a031916815260200191505b50878103835289818151815260200191508051906020019080838360005b8381101561077e578082015181840152602081019050610763565b50505050905090810190601f1680156107ab5780820380516001836020036101000a031916815260200191505b50878103825288818151815260200191508051906020019080838360005b838110156107e45780820151818401526020810190506107c9565b50505050905090810190601f1680156108115780820380516001836020036101000a031916815260200191505b509c5050505050505050505050505060405180910390a15b505050505050565b600160009054906101000a900473ffffffffffffffffffffffffffffffffffffffff1681565b600080600080600160009054906101000a900473ffffffffffffffffffffffffffffffffffffffff1690508073ffffffffffffffffffffffffffffffffffffffff1663f4bebd7a6040518163ffffffff1660e01b8152600401604080518083038186803b1580156108c757600080fd5b505afa1580156108db573d6000803e3d6000fd5b505050506040513d60408110156108f157600080fd5b810190808051906020019092919080519060200190929190505050809350819450505081935050505090565b80600160006101000a81548173ffffffffffffffffffffffffffffffffffffffff021916908373ffffffffffffffffffffffffffffffffffffffff16021790555050565b6000809054906101000a900473ffffffffffffffffffffffffffffffffffffffff168156fea265627a7a72315820e7d8ceb40544c9d62a99c1df1fcdd276a4ba14cc94798d5c87dc6826f32a68f964736f6c63430005100032",
  "source": "pragma solidity ^0.5.2;\n\nimport \"./BeaconContract.sol\";\n\ncontract Beacon{\n    function getLatestRandomness()external view returns(uint256,bytes32){}\n    \n}\n\ncontract BloodBankDonorFeedOracle {\n    \n  address public oracleAddress;\n  \n  address public BeaconContractAddress=0x79474439753C7c70011C3b00e06e559378bAD040;\n\n  constructor (address _oracleAddress) public {\n    oracleAddress = _oracleAddress;\n  }\n  \n  function setBeaconContractAddress(address _address) public  {\n        BeaconContractAddress=_address;\n    }\n    \n    function generateRandomNumber() public view returns(bytes32){\n        uint blockNumber;\n        bytes32 randomNumber;\n        Beacon beacon=Beacon(BeaconContractAddress);\n        (blockNumber,randomNumber)=beacon.getLatestRandomness();\n        return randomNumber;\n       \n    }\n\n  event DonorProfileFeed (\n    string DonoationDescription,\n    string bodyWeight,\n    string plateletCount,\n    string numberOfDonations,\n    string lastDonationDate,\n    string lastDonationPlace\n  );\n\n  function updateDonorProfile (\n    string memory DonoationDescription,\n    string memory bodyWeight,\n    string memory plateletCount,\n    string memory numberOfDonations,\n    string memory lastDonationDate,\n    string memory lastDonationPlace\n  )\n  public\n  {\n    require(msg.sender == oracleAddress);\n\n   if ((bytes32(block.number))> generateRandomNumber()) {\n\n    emit DonorProfileFeed (\n      DonoationDescription,\n      bodyWeight,\n      plateletCount,\n      numberOfDonations,\n      lastDonationDate,\n      lastDonationPlace\n    );\n   }\n  }\n}\n",
  "sourcePath": "/Users/gokulalex/Apps/2020_india_hacks/Harmony-DecentralHacks2020/sanguinet-smartcontracts/contracts/BloodBankDonorFeedOracle.sol",
  "compiler": {
    "name": "solc",
    "version": "0.5.16+commit.9c3226ce.Emscripten.clang"
  },
  "schemaVersion": "3.2.3",
  "updatedAt": "2020-08-27T13:51:34.543Z",
  "devdoc": {
    "methods": {}
  },
  "userdoc": {
    "methods": {}
  }
}